:020000040800F2
:1000000068040020B1010008B5100008510E000876
:10001000B3100008BD0200086111000800000000D4
:10002000000000000000000000000000B9100008FF
:10003000BF02000800000000B7100008BB10000855
:10004000CB010008CB010008CB010008CB01000860
:10005000CB010008CB010008CB010008CB01000850
:10006000CB010008CB010008CB010008CB01000840
:10007000CB010008CB010008CB010008CB01000830
:10008000CB010008CB010008CB01000800000000F4
:10009000000000000000000000000000CB0100088C
:1000A000CB010008CB010008CB010008CB01000800
:1000B000CB010008CB010008CB010008CB010008F0
:1000C000CB010008CB010008CB010008CB010008E0
:1000D000CB010008CB010008CB01000800000000A4
:1000E000CB010008CB010008CB0100080000000094
:1000F000000000000000000000000000CB0100082C
:1001000000000000CB010008CB010008CB01000873
:1001100000000000000000000000000000000000DF
:10012000CB010008CB010008CB010008CB0100087F
:10013000CB010008000000000000000000000000EB
:10014000000000000000000000000000CB010008DB
:10015000CB010008CB010008CB010008CB0100084F
:10016000CB010008CB0100080000000000000000E7
:10017000000000000000000000000000000000007F
:1001800000000000CB01000800000000000000009B
:10019000CB010008CB010008DFF810D000F07CF89C
:1001A00000480047C5120008AFF300806804002033
:1001B0000648804706480047FEE7FEE7FEE7FEE701
:1001C000FEE7FEE7FEE7FEE7FEE7FEE75111000867
:1001D000990100082DE9F05F0546002092469B46F4
:1001E00088460646814640241BE02846414647464D
:1001F000224600F041F853465A46C01A914110D3A6
:1002000011461846224600F028F82D1A67EB01081F
:100210004F4622460120002100F01FF817EB00098D
:100220004E41201EA4F10104DFDC484631462A4637
:100230004346BDE8F09FD2B201E000F8012B491E11
:10024000FBD270470022F6E710B513460A46044673
:100250001946FFF7F0FF204610BD202A04DB203AA4
:1002600000FA02F1002070479140C2F1200320FA09
:1002700003F3194390407047202A04DB203A21FA07
:1002800002F00021704721FA02F3D040C2F12002AF
:100290009140084319467047064C074D06E0E06858
:1002A00040F0010394E8070098471034AC42F6D3BD
:1002B000FFF776FF94130008B4130008FEE77047B9
:1002C00070B5044600F0FEF80546601C02D00448F4
:1002D0000078044400F0F6F8401BA042FAD370BD49
:1002E000000000202DE9F84FDFF8B8A1002201241A
:1002F0000AF1040B03254FF00F090BF1040E00BFA8
:100300000B6804FA02F63340B34273D10F7907F059
:100310000307012F01D0022F16D187684FEA420848
:1003200005FA08FC27EA0C07D1F80CC00CFA08FC07
:100330004CEA070CC0F808C04768B7430E79C6F30B
:10034000001696403E4346600E79F643B6070DD040
:10035000C768560005FA06FC27EA0C07D1F808C062
:100360000CFA06FC4CEA070CC0F80CC00E7906F03B
:100370000306022E10D1D60800EB8608D8F82060BC
:1003800057074FEAD76C09FA0CF7BE430F6907FA13
:100390000CF73743C8F8207006684FEA420C05FA9C
:1003A0000CF7BE430F7907F0030707FA0CF7374342
:1003B00007604E6816F4403F6DD03B4E376847F4F7
:1003C00080473760366822F0030706F480460096BF
:1003D000364E07EB060CDCF8086897073F0F09FA62
:1003E00007F826EA0806DFF8C880404503D14FF039
:1003F00000081EE04FE0DFF8BC80404502D14FF01E
:10040000010816E0DFF8B080404502D14FF0020845
:100410000FE0DFF8A880404502D14FF0030808E064
:10042000DFF89C80404502D14FF0040801E04FF016
:10043000070808FA07F848EA0608CCF80888DAF846
:1004400000605746D1F804C09E435FEACC3C00D51B
:100450001E433E60DBF800605F46D1F804C09E4357
:100460005FEA8C3C00D51E433E60DEF800607746B4
:10047000D1F804C09E435FEACC2C00D51E433E60F9
:10048000084F0C373E68D1F804C09E435FEA8C2CBD
:1004900000D51E433E60521C102AFFF431AFBDE868
:1004A000F88F0000003C0140443802400030014019
:1004B000000002400004024000080240000C02401C
:1004C00000100240014880687047000000000020D2
:1004D00070B5040025D094F83D00002520B984F8BB
:1004E0003C50204600F04EF9242084F83D0020685E
:1004F000016821F0010101602068016841F40041B8
:1005000001602068016821F40041016000F094FA64
:100510004D4A6168914201D84C4900E04C498842FB
:1005200001D2012070BD4B492368B0FBF1F15E6838
:1005300026F03F060E435E606368934206D94FF48F
:10054000967359434FF47A73B1FBF3F12368491C56
:100550001E6A26F03F06314319626168914210D845
:100560004900401EB0FBF1F2521CC2F30B02042AF8
:1005700001D2042022E0B0FBF1F0401CC0F30B00DC
:100580001CE0A268F2B301EBC10303EB0116431EAA
:10059000B3FBF6F35B1C43F480431B0549D092B3D5
:1005A00001EBC10202EB0111401EB0FBF1F0401C57
:1005B000C0F30B0040F4804040F400402168CA6959
:1005C0004CF6FF739A431043C861D4E90710014306
:1005D0002068026822F0C00211430160D4E90301DF
:1005E00001432068826848F2FF339A4311438160D7
:1005F000D4E9050108432168CA6822F0FF021043CC
:10060000C86001E00EE016E02068016841F00101D9
:1006100001602564202084F83D00256384F83E5065
:10062000002070BD01EB4106431EB3FBF6F35B1CDB
:10063000B3E70120C2E701EB4101401EB0FBF1F03E
:10064000401CC0F30B00B7E7A086010080841E00A9
:1006500000093D0040420F002DE9F84F1F4690462B
:100660008A460446DDF82890FFF72CFF054694F8EB
:100670003D0020287FD119230122404920460095C2
:1006800000F072FC002876D194F83C00012872D06A
:10069000012084F83C0020680168C90703D1016883
:1006A00041F0010101602068016821F400610160EE
:1006B000212084F83D00102084F83E0000262664A6
:1006C000C4F824806785608D20852D48E0622B4624
:1006D0004A465146204600F0D3FB90B92068416954
:1006E0008069009036E02A464946204600F0BBFC6F
:1006F00050B1206C042804D12068016841F40071D5
:1007000001600120BDE8F88F606A21680078086107
:10071000606A401C6062618D491E6185218D491EA1
:1007200089B2218522685369DB435B070BD451B141
:1007300000781061606A401C6062608D401E6085B8
:10074000208D401E20852A464946204600F0E6FBC3
:100750000028CED1208D0028C5D154F83D0B01686A
:1007600041F400710160202004F81E09E6776677E5
:100770000020C7E7FFE70220C4E7000002001000E6
:100780000000FFFF10B586B0044614216846FFF74D
:1007900059FD13492068884220D11248016841F070
:1007A000020101600068694600F002000590C02067
:1007B0000090122001900120029003200390042059
:1007C00004900948FFF78EFD06481030016841F497
:1007D00000110160006800F40010059006B010BD23
:1007E0000054004030380240000402400248816852
:1007F0000278114481607047000000200B4810B55A
:10080000016841F400710160016841F48061016098
:10081000016841F480710160032000F061F800205C
:1008200000F006F800F024F8002010BD003C024063
:1008300070B50D4D04464FF47A712878B1FBF0F095
:100840000A490968B1FBF0F000F0EEFA48B9102C43
:1008500007D200222146501E00F022F800206C60D2
:1008600070BD012070BD0000000000200C000020C1
:100870000A4808B5016841F480410160006800F44D
:10088000804000900548001F016841F080510160E0
:10089000006800F08050009008BD0000443802401D
:1008A000F0B40E4B1B680C46C3F30223C3F10705DB
:1008B000042D00D90425191D072901D2002300E0C9
:1008C000DB1E012606FA05F1491E214099409E4093
:1008D000761E16403143F0BC00F043BC0CED00E046
:1008E000064900F0070208684FF6FF03184040EA87
:1008F0000220034A10430860704700000CED00E03E
:100900000000FA052DE9F0470E46050065D0DFF836
:100910001481D8F80000F7B200F00700B04207D207
:1009200088F80070D8F8000000F00700B04254D1F9
:1009300028683D4C810712D5400703D5206840F454
:10094000E05020602878000703D5206840F460401C
:1009500020602068A96820F0F00008432060287813
:10096000C0072DD0304968680839012812D0022804
:1009700013D0032811D00968890700292DDA2168CE
:1009800021F0030101432160FFF79CFD814641F204
:10099000883A0EE009688903EFE709688901ECE706
:1009A000FFF790FDA0EB0901514502D90320BDE8F6
:1009B000F0872068696800F00C00B0EB810FEFD180
:1009C000D8F80010404601F00701B14207D907707E
:1009D000006800F00700B04201D00120E7E7287866
:1009E000400705D52068E96820F4E05008432060FE
:1009F0002878000706D52068296920F4604040EA7D
:100A0000C100206000F028F82168084AC1F30311F2
:100A1000515CC8400649086006480068FFF708FFB7
:100A20000020C4E7003C0240083802407C13000864
:100A30000C000020040000200448054900680968F3
:100A4000044AC1F38221515CC84070470C00002069
:100A5000083802408C130008154810B5006810F0E3
:100A60000C02144813D01449042A0FD0082A0ED1BE
:100A70000F4C241F2268236802F03F025B0207D557
:100A80002068C0F38810A0FB010106E0084610BDF5
:100A90002168C1F38811A1FB00010023FFF79AFB35
:100AA0002168C1F30141491C4900B0FBF1F010BDC0
:100AB000083802400024F40040787D012DE9F84F09
:100AC00004006ED02078DFF84C93C007A9F104052C
:100AD0004AD009F104000168C1F38101012908D05D
:100AE0000068C0F3810002280AD1D9F80000400252
:100AF00006D52868800337D560680028E1D033E048
:100B00006068B0F5803F10D0B0F5A02F286810D0F5
:100B100020F480302860286820F4802028606068F5
:100B2000A8B1FFF7CFFC06460DE0286840F48030FE
:100B3000F4E740F480202860F7E700BFFFF7C2FC2D
:100B4000801B642873D828688003F7D50CE0FFF772
:100B5000B9FC064605E000BFFFF7B4FC801B642823
:100B6000F0D828688003F7D42078DFF8AC828007BB
:100B70004FF0000A3ED5A748001D016811F00C0F88
:100B800008D00068C0F3810002280BD1D9F800001A
:100B9000400207D42868800716D5E068012800D1F4
:100BA00012E033E1E068B8B10120C8F80000FFF7B7
:100BB00089FC064605E000BFFFF784FC801B022885
:100BC000C0D828688007F7D52868216920F0F80088
:100BD00040EAC10028600DE0C8F800A0FFF772FCF1
:100BE000064604E0FFF76EFC801B02281FD8286829
:100BF0008007F7D42078000722D5864F874861699F
:100C0000703771B101210160FFF75CFC064604E01A
:100C1000FFF758FC801B022809D838688007F7D5F1
:100C20000EE0C0F800A0FFF74DFC064605E082E0AC
:100C3000FFF748FC801B02287DD838688007F7D46E
:100C40002078400768D5DFF8CCB100270BF13C0BCA
:100C5000DBF80000C0000BD4DBF8001041F080513D
:100C6000CBF80010DBF80000012700F08050009066
:100C70006B4E3068C00510D4306840F4807030602E
:100C8000FFF720FC009005E0FFF71CFC0099401ADC
:100C9000022850D83068C005F6D55E4EA0686C3684
:100CA00001280FD00528306810D020F001003060F6
:100CB000306820F004003060A068B8B1FFF702FC93
:100CC00000900FE0306840F00100F4E740F00400CD
:100CD0003060F7E7FFF7F6FB0099411A41F28830E0
:100CE000814266D830688007F4D50EE0FFF7EAFB52
:100CF000009007E0FFF7E6FB0099411A41F28830C7
:100D0000814256D830688007F4D42FB1DBF8001048
:100D100021F08051CBF80010A069C8B33D49091DEE
:100D20000968C1F3810102294AD00228504607D040
:100D3000C8F8600000E03CE0FFF7C4FB04463BE07D
:100D40004746C8F86000FFF7BDFB064605E000BF58
:100D5000FFF7B8FB801B02282BD828688001F7D446
:100D6000D4E907010843A16A2E4A490802EB014170
:100D7000626A41EA8211084394F82C1040EA01614A
:100D8000C9F8001001203866FFF79CFB044606E016
:100D90003EE000BFFFF796FB001B022809D8286839
:100DA0008001F7D534E000BFFFF78CFB001B022861
:100DB00002D90320BDE8F88F28688001F4D427E029
:100DC0000128F7D0D9F80000E26900F480019142CF
:100DD0001CD1226A00F03F01914217D147F6C07141
:100DE000626A0140B1EB821F10D1A26A4FF0FF335B
:100DF00000F4403103EB5202B1EB024F06D194F8FC
:100E00002C1000F07060B0EB016F01D00120D1E731
:100E10000020CFE70438024000004742800E4742DE
:100E2000007000400000FFFF10B5401EB0F1807F51
:100E300001D3012010BD4FF0E02460610F21601745
:100E400000F08FF90020A06107202061002010BD74
:100E5000FEE701684A69D24352050FD46FF48062FD
:100E60004A61002140F8301F2022427381730269D9
:100E700042F00402026101730120704700207047B4
:100E8000F8B50446C06A1E460D461746082807D026
:100E9000012805D010F5803F02D0206B122804D124
:100EA0002068016841F480710160134600224FF010
:100EB00001112046009600F057F840B12068006804
:100EC000C00502D54FF4007020640320F8BD2069EE
:100ED000B0F5804F0ED00620216800EAD51040F012
:100EE000F000086133463A460B49204600F070F89E
:100EF00078B902E005F0FE0000E0E8B22168086180
:100F0000054933463A46891F204600F061F800281B
:100F1000DCD00120F8BD00000800010070B51646C5
:100F20000D4604460DE02046FFF793FF08B101206F
:100F300070BD681C05D0FFF7C5FA801BA84207D812
:100F400035B120684069C0434007ECD4002070BD33
:100F5000002044F8300F20216173A073216941F013
:100F6000200121612073E2E72DE9F0471E469046FB
:100F70000D460446C1F30747DDF8209008E0701CD9
:100F800006D0FFF79FFAA0EB0900B0420FD876B168
:100F90002068012F18D0806925EA00000004000CA9
:100FA00014D000214145EAD00020BDE8F0870020A0
:100FB00044F8300F20216173A073216941F02001B2
:100FC000216120730120F0E74069E5E70121E9E7AD
:100FD0002DE9F0479A4691460E46044600254FF00B
:100FE0002008C1F3074725E020684069C043400559
:100FF00014D42068016841F40071016021686FF425
:1010000080604861256384F83D8084F83E50206C00
:1010100040F00400206484F83C501FE0B9F1FF3F29
:1010200008D0FFF74FFAA0EB0A0149450CD8B9F1F7
:10103000000F09D02068012F13D0806926EA000034
:101040000004000C0BD0CFE744F8305F84F80D802B
:10105000A573206940F02000206125730120BDE8C0
:10106000F0874069EAE770B516460D4604460DE084
:101070002046FFF7EEFE08B1012070BD681C05D0C8
:10108000FFF720FA801BA84207D835B120684069D5
:10109000C0430006ECD4002070BD002044F8300F9F
:1010A00020216173A073216941F020012161207327
:1010B000E2E7FEE7FEE770477047FFF797BB0000E7
:1010C00030B593B030216846FFF7BCF814210CA866
:1010D000FFF7B8F81C480025016841F08051016015
:1010E000006800F0805011901848016841F44041B8
:1010F00001600068022400F440401190012000903B
:10110000000401908001CDE906400C200890602089
:10111000CDE9090404200B906846FFF7CFFC08B125
:1011200072B6FEE70CA90F2081E831004FF4805021
:10113000CDE90F0503210CA8FFF7E4FB002801D03F
:1011400072B6FEE713B030BD403802400070004078
:101150000248016841F470010160704788ED00E0C9
:10116000FEE70907090E002804DB00F1E02080F803
:101170000014704700F00F0000F1E02080F8141D0B
:10118000704702E008C8121F08C1002AFAD1704750
:101190007047002001E001C1121F002AFBD17047F7
:1011A00010B53220FFF78CF8302000F041F8052010
:1011B000FFF786F8302000F03BF80120FFF780F8B9
:1011C000302000F035F80A20FFF77AF8202000F0F0
:1011D0002FF80A20FFF774F8282000F029F80120E2
:1011E000FFF76EF8082000F023F80120FFF768F8F9
:1011F000012000F01DF80120FFF762F80120FFF741
:101200005FF8062000F014F80120FFF759F8BDE858
:1012100010400C2000F00CB810B1012805D102E0FC
:1012200041F0800101E041F0C001C8B2AFF300809D
:101230001CB500F0F00141F00C028DF8042041F0E3
:10124000080100018DF8051040F00C018DF8061022
:1012500040F008008DF8070064200090042301AAE4
:101260004E210248FFF7F8F91CBD000010000020D5
:101270001CB500F0F00141F00D028DF8042041F0A2
:10128000090100018DF8051040F00D018DF80610E0
:1012900040F009008DF8070064200090042301AAA3
:1012A0004E210248FFF7D8F91CBD000010000020B5
:1012B00010B5044602E0641CFFF7DAFF207800282E
:1012C000F9D110BD08B5FFF799FAFFF7F9FE1F48ED
:1012D0000021026842F080020260026802F080028F
:1012E0000092026842F001020260026802F001020C
:1012F0000092026842F0020202600068144A00F0A4
:101300000200009013480260134AC0E901214FF423
:101310008042C0E9031241618161C1610162FFF74E
:10132000D7F808B172B6FEE7FFF73AFF0BA0FFF758
:10133000BFFF4FF47A70FEF7C3FF00210120FFF7D3
:101340006BFF0AA0FFF7B4FFFEE700003038024051
:101350000054004010000020A086010048656C6C1D
:101360006F20576F726C642100000000416C666151
:1013700020466174616E73796168000000000000AE
:101380000000000001020304060708090000000035
:1013900001020304B4130008000000201000000044
:1013A00082110008C4130008100000205804000037
:1013B0009211000801000000100000000000000071
:0413C0000024F40011
:040000050800019955
:00000001FF
